:10000000D0190020411C00007907000041070000C2
:1000100041070000410700004107000041070000C0
:100020000000000000000000000000004107000088
:100030004107000000000000410700008D0700009C
:10004000A9170000C91B0000CD1B0000D11B000038
:1000500000000000000000000000000000000000A0
:100060000000000000000000000000000000000090
:100070000000000000000000000000000000000080
:100080000000000000000000000000000000000070
:10040000FFFFFFFFDFCEFFFFFCFFFF00FFFFFF004E
:10041000FCFFFF00FFFFFF00FCFFFF00FFFFFF00EE
:10042000FCFF0F20FFFF0F20FCFF7F40FFFF7F40FE
:10043000FCFF0D40FFFF0D40FFFFFFFFFFFFFFFF31
:10044000FFFFFFFFFFFFFFFFFFFFFFFFFFFFFFFFBC
:10045000FFFFFFFFFFFFFFFFFFFFFFFFFFFFFFFFAC
:10046000FFFFFFFFFFFFFFFFFFFFFFFFFFFFFFFF9C
:10047000FFFFFFFFFFFFFFFFFFFFFFFFFFFFFFFF8C
:10048000FFFFFFFFFFFFFFFFFFFFFFFFFFFFFFFF7C
:10049000FFFFFFFFFFFFFFFFFFFFFFFFFFFFFFFF6C
:1004A000FFFFFFFFFFFFFFFFFFFFFFFFFFFFFFFF5C
:1004B000FFFFFFFFFFFFFFFFFFFFFFFFFFFFFFFF4C
:1004C000FFFFFFFFFFFFFFFFFFFFFFFFFFFFFFFF3C
:1004D000FFFFFFFFFFFFFFFFFFFFFFFFFFFFFFFF2C
:1004E000FFFFFFFFFFFFFFFFFFFFFFFFFFFFFFFF1C
:1004F000FFFFFFFFFFFFFFFFFFFFFFFFFFFFFFFF0C
:10050000044A138D03F00F038342FAD1538D9B04E9
:10051000FCD570470000094022F0010370B5034488
:10052000550804469C420CD16FF0010422F00103EF
:1005300004FB052222B1C25C0B7862F307030B7047
:1005400070BD34F8026B0E80ECE70244904200D19B
:1005500070470B7800F8013BF8E7FFFF2DE9F04FFB
:1005600098460C23174E03FB08F385B0894606EB2B
:10057000030A01A9F358154607469847BDF80440F9
:10058000DAF808B00298AC4228BF2C462246494609
:10059000D8472C1B0AD0BDF806A00398A24528BF57
:1005A000A24652464946D847A4EB0A040C2303FB53
:1005B0000866291B736889B23846984705B0BDE8BC
:1005C000F08F00BF18290000F8B5174CE5882DB949
:1005D00025706570A570E5700120F8BD134BB3F868
:1005E0005E7007F07F07BD422E4628BF3E4646B1EB
:1005F000637A2068DB0710D50D4901233246FFF7E7
:10060000ADFFBE423CBF094B4FF40042A5EB0605CF
:1006100038BF5A840020E580DFE705493246FFF7FE
:100620007BFF30442060ECE7F0050020000009402B
:10063000140009402DE9F843214D0C274743E919DF
:100640008046CC8834B9EC5501204C708C70CC704D
:10065000BDE8F8831B4B82B242F480661E85A3F886
:100660006420B3F86C901FFA89F9FFF749FF4C45F5
:10067000264628BF4E4646B14B7AE859DB0717D5C8
:10068000114901233246FFF769FF0E4A4E453CBF30
:100690004FF40043538500231385138D13F00F038C
:1006A000FBD10C2000FB0855A41BEC801846CFE7BB
:1006B00005493246FFF730FF3044E851E5E700BF17
:1006C000F0050020000009401800094038B9044B2B
:1006D0000122C3F88020BFF34F8FBFF36F8F7047A5
:1006E00000E100E0014B01221A60704700E100E0E8
:1006F00011F07F0208B519D00E4BC90903EB0111A7
:10070000114491F878308BB10B495B001944FFF725
:10071000DDFF0B8803F0030343F002030B80022389
:100720000B8028B9BDE80840FFF7DCBF0349EEE7BE
:1007300008BD00BFF00500206E00094060000940C0
:1007400000BE7047064B93F826101A6A054B53F803
:100750002130C2F30262D340034A1360704700BFE6
:1007600000E00140B4050020D0050020A0F1010008
:100770000028FBD17047FFFF034AB2F840319BB21B
:10078000A2F83031704700BF00600040024A136891
:1007900001331360704700BFC811002010B501F18C
:1007A000080400F00F02D3B2092ACCBF373330332C
:1007B00004F8013DA1424FEA1010F2D110BDFFFF35
:1007C00000F1604303F561430901C9B283F80013E6
:1007D00000F1C0020A4B53F822106FF3104143F8A6
:1007E000221000F01F024009800000F1604000F577
:1007F000614001239340C0F880310360704700BF1F
:1008000000600040C38911FA83F19AB289B28A422A
:1008100002D883898B4202D24389194489B2C181AB
:100820007047038A11FA83F19AB289B28A4202D8D8
:1008300083898B4202D24389194489B2018270476D
:1008400030B5C489038AA4B29BB29C4238BF4589A3
:10085000A4EB030292B238BF521B858838BF92B214
:1008600095420ED2A54204D88289631B9BB29A425C
:1008700003D243892B44E31A9BB20382038A2A469C
:100880009BB22AB9C1E900228A6030BD641BA4B2C0
:10089000A542FBD99D4209D90568A3421D444D607C
:1008A00007D200230A804B808B60EEE75B1B9BB274
:1008B000F0E78488121BE51A1A440D804A80036809
:1008C000F2E770B5C289048A858892B2A4B2A242C6
:1008D00038BF4689A2EB04039BB23CBF9B1B9BB273
:1008E000EB1A9BB22BB9C1E900338B6070BD521B70
:1008F00092B2AA42FBD2AC4209D205689442154496
:100900004D6007D9A21A00230A804B80EDE7641BD3
:10091000A4B2F0E784881B1B1344A51A0D804B80FA
:100920000368E2E7094B63B1094B1B78834206D9A0
:10093000084B1B6800EB400003EBC0007047C01A77
:10094000C0B20028044818BF002070470000000013
:10095000D8050020D405002044280000CB680249B7
:100960000B610121184700BFDC050020044B1B78F8
:1009700010B123B9FFF7B6BE1846FFF7A7BE704700
:10098000B0050020024B02225A8000221A717047E3
:1009900088070020024B00221A80FFF7F3BF00BF38
:1009A000880700200020FFF7F5BFFFFF70B5002388
:1009B0008D7818468C79012C20D04B78212B22D1B0
:1009C000164B8A781A70B1F805300930402B80B286
:1009D00022D94FF0E023D3F8F03DDB071CD500BE51
:1009E0001AE08C78AC420ED1CE78DCB2A6420AD1A5
:1009F0000C78204480B221440133DBE7CC79022C0F
:100A0000DBD19042EDD34FF0E023D3F8F00D10F09E
:100A1000010001D000BE002070BD00BF880700208B
:100A2000084B1A68084B9A4209D1084BB3F8B23FF9
:100A300003F08103002B0CBF002008207047072023
:100A4000704700BF181100204E45504F00F07E4007
:100A5000084B00221A719A78042A02D103229A7054
:100A60007047072AFCD11A7812F0040F14BF06222F
:100A70000822F4E78807002008B50378012B06D187
:100A800003490B881BB1FFF7E3FF00230B8008BD70
:100A900016110020EFF31080012383F310880A4A17
:100AA00053889BB24BB90949B1F8FE339BB243F46A
:100AB000254343F00203A1F8FE33538801339BB270
:100AC000538080F3108870475811002000E00140E7
:100AD000EFF31081012383F310880C4A53889BB2F3
:100AE0001BB15388013B9BB2538053889BB24BB9D7
:100AF000074AB2F8FE339BB223F0020343F42543C6
:100B0000A2F8FE3381F31088704700BF581100200F
:100B100000E00140030143EA801040F4847040F09B
:100B200001007047002802DB014AFFF749BE704709
:100B3000A811002030B5184DAB686D685C6E2D783B
:100B4000032D98BF013408B1A0421CD35B6BD207C0
:100B500054BF03F01F03C3F30443032D07D91B093C
:100B600083F0010348B9A3B902234B6030BD03F001
:100B70000C031A1F53425341F4E7A04201D3002B48
:100B8000F2D10323F1E7032D98BF00F1FF30086095
:100B9000ECE7002CE8D0F4E7A81100202DE9F84399
:100BA000DFF8049109EBD013064693F8275015F0AF
:100BB000010514464FEAD0170BD04FF0E023D3F8CD
:100BC000F03DDC0703D400252846BDE8F88300BECD
:100BD000F9E7324A92F8008093F8272042F00102A8
:100BE00083F827204046FFF771FD2D4B002E3BD0A8
:100BF0004FF484621A841A8C9006FCD5294B5A7AD9
:100C00009C806FF300025A72DC80254A002C3DD094
:100C1000196086B3B2F86030180403D5B2F85430C6
:100C2000190626D44FF0E023D3F8F03DDA0700D5BB
:100C300000BEB8F1000F01D1FFF754FD09EB070327
:100C400093F827206FF3000283F8272093F82720DA
:100C50006FF3820283F827204FF0E023D3F8F03DB2
:100C6000DB07B0D500BEAFE71E841A8C9206FCD419
:100C7000C4E7FFF7A9FC0A4B0122A3F86020B8F1F2
:100C8000000F01D1FFF72EFD01259DE71C705C7060
:100C90009C70DC700523A2F86030F0E7B0050020FE
:100CA00000000940F00500201408002010F0800F1B
:100CB0004FF0000211460CBF80201046FFF76EBFB8
:100CC00010B40346064C00685968224603C200224D
:100CD000C4E902225DF8044B1878FFF7E7BF00BFB4
:100CE000DC05002070B5144E05460024E0B2FFF785
:100CF00019FE38B94FF0E023D3F8F03DDB0700D5FB
:100D000000BE70BD43682846984701343278E3B28C
:100D10009A42EBD23B220021084801F013FD102239
:100D2000FF21074801F00EFDBDE870400548142280
:100D3000FF2101F007BD00BFD805002014080020E6
:100D4000170800202708002038B5C589028AADB2EF
:100D500092B2AA42A5EB020388BF42899BB288BF28
:100D60009B1A828888BF9BB29A42044619D1007AA6
:100D7000B8B938BD9B1A9BB29342FBD2E288206877
:100D800002FB030001F0D0FC6B1C9BB29D4202D819
:100D9000A2899A4202D2628913449BB2E381012064
:100DA000E7E72B46E8E7FFFF13B5124B9889D9898F
:100DB00093F90040421A92B2402A28BF4022002CE8
:100DC0000EDA884212D099680B48019201F0ACFC0F
:100DD0000949019A802002B0BDE81040FFF7DEBE4D
:100DE00088424FF0000003D10021F4E78020FBE7A8
:100DF0000149F0E7DC050020D407002070B5044667
:100E0000164D00680B466168AB602E4603C6002194
:100E1000E981E1888A4228BF0A46AA81E18881B136
:100E200052B14BB94FF0E022D2F8F02DD20701D4E5
:100E3000002070BD00BEFBE7FFF7B6FF28B1012020
:100E4000F7E72078FFF732FFF8E74FF0E023D3F819
:100E5000F03DDB07ECD500BEEBE700BFDC05002072
:100E600007B58DF800208DF801301A0A1B0C8DF89B
:100E700002208DF803308DF8041000230622694605
:100E80008DF80530FFF7BAFF03B05DF804FBFFFFF4
:100E90002DE9F04F87B0A14B1C68002023689847CC
:100EA000628AA18A92B289B28A4238BFE089A2EBF3
:100EB00001039DB238BF2B1A208938BF9DB2A842CA
:100EC0000CD2824204D3258A131A9BB29D4203D2CC
:100ED000E3890344D21A93B2A38205462DBBA38AA9
:100EE0009AB215FA83F39BB29A4202D8228A9A42A6
:100EF00002D2E28913449BB2A3820120236898475F
:100F0000002D00F0A0839DF80D30013B072B00F26F
:100F10004783DFE813F0150023004503A303A30371
:100F20002D002403A603091A89B28842FBD96289DD
:100F3000636803A802FB013101F0F6FB0125CEE74F
:100F40009DF80C00FFF7CEFE14227548002101F039
:100F5000F9FB744B9DF810209A709CE79DF80C00EB
:100F6000FFF7C0FE142200216D4801F0EBFB92E771
:100F70006C4CDFF8AC9123789DF810809DF80C70D4
:100F800043F00103237094F827306FF3000384F8D3
:100F9000273094F827306FF3820384F8273094F8D1
:100FA00028306FF3000384F8283094F828306FF36A
:100FB000820384F828300023C9F8103008F0600359
:100FC000602B11D14FF0E023D3F8F03DD90700D5C5
:100FD00000BE9DF80C000021FFF78AFB9DF80C0075
:100FE0008021FFF785FB56E7402B0DD14E4B002BA0
:100FF000EFD004AA01213846C9F81030AFF30080C1
:1010000000287FF448AFE4E708F01F08B8F1010FAB
:1010100000F0D281B8F1020F00F0F581B8F1000FB5
:10102000D0D1202B0FD19DF814300F2BD1D82344D1
:10103000D878FFF777FC01460028CAD004AA3846C2
:10104000FFF78CFCDCE7002BBCD19DF81130092B9D
:10105000B8D801A151F823F0A313000091130000A8
:10106000C50F00007D130000C50F000081100000B7
:101070004D120000C50F00009B100000AF100000D3
:1010800006AB13E903000023C9E90233237843F0D8
:101090000203C9E900012370FDE663788DF80A3088
:1010A00001220DF10A0104A8FFF7A8FEF3E69DF85E
:1010B000125063789D4200F0C4806378B3B1384623
:1010C000FFF704FB194EDFF868C00A204FF00C0848
:1010D0004FF0010B4FF0000E01382DD10FB9FFF783
:1010E00001FBA6783846FFF7FDFDA670002D00F045
:1010F000A8802378DFF83CB023F0300323704FF052
:1011000001099BF80130042B46D04FF0E023D3F8BF
:10111000F03DDA077FF556AF00BE53E750080020D8
:10112000DC0500201408002000000000F00500206D
:10113000000009406528000008FB00631B7A002BB3
:10114000CAD003F07F09DB091A0106EB03134B44F5
:10115000019293F87830BCF836100BFA03FA89B292
:1011600021EA0A01ACF83610A3B1BB4A591E02EBC2
:101170004101A1F800E099B2ACF86410ACF868E065
:10118000019A324408FB0363914483F808E089F82C
:1011900078E0A1E7B149ECE7B14BA3EB0B021FFAF2
:1011A00082FA4FF000085FFA88F63046FFF7BAFB84
:1011B0000028AAD0836852465946384698470828DE
:1011C00036D9824534D3002209E09BF802100B4443
:1011D00054FA83F30132D978FF2996D1DE70D3B265
:1011E0009945F2D85844584511D89E4B1B78B342C4
:1011F0008BD39B4B984224D243780B2B03BF0378AD
:1012000090F80390C0184FF00109834679E79BF8E6
:101210000130052B08D19BF8022002F07F0304EB7C
:10122000430303EBD213DE749BF800309B44DAE7F0
:101230008C4B08F1010819785FFA88F39942B2D211
:1012400063E7657004A8FFF73BFD24E6BDF81200D4
:10125000030A5A1EC0B20E2A3FF6BBAE01A151F8D6
:1012600022F000BFA1120000C5120000E31200002E
:10127000D30F0000D30F000065130000C51200005B
:10128000D30F0000D30F0000D30F0000D30F0000D6
:10129000D30F0000D30F0000D30F0000AD120000E9
:1012A0007149122204A8FFF7A9FDA9E66F4B002B94
:1012B0003FF48FAEAFF30080014600283FF482AECA
:1012C0004A88EFE7022B01D16949F9E7694B002B06
:1012D0003FF47FAEAFF3008000283FF473AE0146C9
:1012E000EEE770B964496548022201F01DFA012059
:1012F0004000821C624942F440730B8002F0FE02FF
:10130000D0E705283FF665AE5E4B5F4C53F82050A2
:101310002378BBB95D4BD3F89C3103F114065869AF
:101320002146FFF73BFA706804F10801FFF736FA2F
:10133000B06804F11001FFF731FAF06804F1180108
:10134000FFF72CFA284601F005FA4D49C0B20023F8
:10135000DAB2824203F10103CAD2541CAA5C21F81A
:101360001420F5E74A4B002B3FF433AEAFF3008077
:10137000014600283FF42DAE027893E7BDF8123005
:10138000012B7FF426AE237843F00803237059E73E
:10139000BDF81230012B7FF41CAE23786FF3C3032A
:1013A000F4E72378C3F340129B0803F002031343CE
:1013B000ADF80A30022274E69DF814300F2B3FF688
:1013C00008AE2344D878FFF7ADFA014600283FF471
:1013D00000AE04AA3846FFF7C1FA00287FF45BADDF
:1013E0009DF8103013F060037FF4F3AD9DF81120E9
:1013F000A2F10A0101293FF6ECAD0A2AC9F8103022
:101400007FF420AF4AE69DF8141001F07F02092A0C
:101410003FF6D8AD04EB420606EBD1160193F07C03
:10142000FFF780FA019B4FEAD11B550082462BB192
:1014300000283FF4CEAD04AA014600E69DF8113025
:1014400003F0FD00012825D0002B7FF4BBAD96F8FA
:101450002730C3F34003ABE7700009406000094048
:1014600080280000D805002080280000000000002F
:101470005C28000000000000412800008A060020CF
:1014800088060020502900006411002000B07F4031
:1014900000000000BDF8120000283DD1744820363D
:1014A000012B0078F37949D19B0735D5A2B1714B57
:1014B00003EB0B131A4492F878306BB16E4E5B005D
:1014C0001E44FFF703F94FF480733380BBF1000F24
:1014D00004D0012333800EE0684EF2E7654B1944D7
:1014E000674B91F87820A3F86420B3F86830C3F311
:1014F0008133012BEDD108B9FFF7F4F82544AB4453
:101500009BF827306FF341038BF827309BF8273087
:101510006FF300038BF82730BAF1000F3FF4BBAC38
:1015200004AA51463846FFF719FA0023C9F81030CB
:1015300094F82830D8073FF5AEAC83E69E07EBD48D
:101540002544AB44FFF7D4F89BF8273043F002035F
:101550008BF827309BF8273043F00103DAE79DF83A
:101560001010484B01F07F0403EB440303EBD1134D
:10157000CF0993F827006FF3000083F8270093F852
:1015800027006FF3820083F82700002C50D13E4CD7
:101590009DF80C602378059DB7EBD31F18D045B19B
:1015A0004FF0E023D3F8F03DDB077FF574AC00BECD
:1015B00071E4364B1BB121463046AFF300802369FE
:1015C000002B3FF468AC304A03213046984762E470
:1015D00094F90030002B07DBA06800283FF45BACD7
:1015E0002B492A4601F0A0F8A268E3892A442B443B
:1015F000A260E2889BB29A42E38101D03F2D14D8C9
:10160000236933B92078FFF751FB00287FF443ACFE
:10161000C6E702211C4A3046984701460028F1D10E
:101620003046FFF765F88021DBE4FFF7BDFBECE710
:10163000D87CFFF777F948B94FF0E023D3F8F03DB5
:10164000DA0700D500BE07B0BDE8F08F0469059B3E
:101650009DF811209DF80C00A0471CE4094B1B7855
:1016600019E4049B002B3FF416AC0598984712E44C
:10167000B0050020F00500206E0009406000094020
:101680000000094014080020DC05002000000000D4
:10169000D407002008B50D4C0D4E2568327823681C
:1016A0005B1B632B0CD9BFF34F8F0A490A4BCA68E7
:1016B00002F4E0621343CB60BFF34F8F00BFFDE73E
:1016C000FF2AECD0FFF7E4FBE8E700BFC8110020D9
:1016D000B005002000ED00E00400FA057FB5437876
:1016E000023B0446032B12D8DFE803F00255151D18
:1016F0002A4B1A786FF300021A701A7800216FF3E0
:1017000041021A7059701A7861F382021A70244BE0
:101710002146186832E0214B1A78D50739D51A7856
:1017200042F00402F2E71D4A1378D80731D5137846
:101730006FF382031370EAE7FFF7F4F820B143690F
:1017400013B161682078984701353378E8B2834255
:10175000F2D2124A137859071BD513786FF382031C
:1017600013700023CDE90133039323788DF80430FF
:1017700005238DF805300A4B186801A90430FFF7DE
:10178000E3FA30B94FF0E023D3F8F03DDB0700D5A2
:1017900000BE04B070BD034E0025D6E7140800203B
:1017A00050080020D80500202DE9F04F89B0EFF354
:1017B0000383103B5BB2A44AC03352F823106FF38B
:1017C000104142F82310A14BB3F84010CA4362F411
:1017D00078428CB292B20904A3F840200CD5B3F839
:1017E000402012F0800FC2F3C0111A8814BF42F0DB
:1017F000100261F304121A8062040ED5002505233D
:1018000005A8CDE9055507958DF81530FFF766FF5A
:101810008E4B1A8E65F34D321A86A30411D58B4E6A
:10182000338E9F040DD50025032305A8CDE905556A
:1018300007958DF81530FFF751FF338E65F34D3363
:101840003386E60407D504F07003202B00F0C9802E
:1018500064D8102B7BD0A50542BF7C4B0022A3F897
:10186000482020052DD5E10740F1DA80774BB3F809
:101870004020120725D54FF480425A84B3F85420F3
:10188000ADF80C20B3F85620ADF80E20B3F8582070
:10189000ADF81020B3F85A20ADF812204FF6F772C9
:1018A000A3F840200023CDE905330793082206233F
:1018B00003A906A88DF8153000F036FF05A8FFF73C
:1018C0000DFF670515D5614BB3F84A200021D607F7
:1018D000A3F84A100DD5FEF777FE50B15C4B4FF4DC
:1018E000E0659B880793802205A8CDE90552FFF7A4
:1018F000F5FEE0050FD5554B554CDA8EB3F8467022
:10190000DFF858A1BFB21740FA4392B2A3F84620BD
:10191000002F40F0A58009B0BDE8F08F602B04D007
:1019200013D804F06003402B95D10023CDE9053393
:10193000079305A804238DF81530FFF7CFFE434A1F
:10194000138E43F40053138685E7702BECE73F4B6F
:1019500001225A87DA864FF480425A8400221A857F
:101960001A8D12F00F02FBD19A859A8D12F00F0298
:10197000FBD1384D38493548012394464FF4007760
:101980004FF480761FFA83FEA0F864E0A0F868C0E8
:1019900021F8137021F8132025F823600133062B5A
:1019A000F0D10025294A2E464FF400709FB2A2F8CC
:1019B0006470A2F8686021F8130021F81350013315
:1019C0000A2BF3D122489822002100F0BBFE01230C
:1019D000CDE9055507958DF8153005A8FFF77EFE72
:1019E00039E71A4BB3F85020D2B2002A3FF433AF94
:1019F00000230521CDE905338DF80C308DF80D104D
:101A0000ADF80E20ADF81030ADF812300793082273
:101A1000062303A906A88DF8153000F085FEDCE743
:101A200014F007037FF44DAF084A128C079312F0AD
:101A3000200F14BF802200220721CDE905338DF845
:101A400015108DF8182039E70060004000000940AB
:101A5000F00500208C0009406E0009401400094088
:101A600097FAA7F5B5FA85F50C236B43E2180093B6
:101A7000137ADB0902F108011CD02846FEF7DAFDD3
:101A800090B10C2303FB054305A89A88197ADB88DB
:101A9000D31A0022CDE9052207228DF815208DF8F2
:101AA00018100793FFF71AFE012303FA05F527EA3A
:101AB00005072DE7424E0193002D4BD0B2F806B03A
:101AC000AAB232852846A6F86420B6F86C90FEF7D4
:101AD00017FDB6F82A80009BC8F30B081FFA89F996
:101AE000C84528BFC846C3455E4628BF4646E0589D
:101AF0004EB14A78D10723D5019B32490090324636
:101B0000FEF72CFD00982E4BB14584BF4FF4804268
:101B10005A8500221A851A8D1207FCD10C2303FB6B
:101B20000542ABEB0601B145D18001D8C345BBD816
:101B30006B43E1180022E2544A708A70CA709FE732
:101B4000324620490190FEF700FD0198009A831962
:101B5000A350D8E7B6F85E80B4F80690728C08F00F
:101B60007F08C1454E46C2F30B0228BF4646964247
:101B700028BF164646B1637A2068DB0717D52B4687
:101B800032465146FEF7EAFCB04582BF0C4B4FF49B
:101B900080425A84A9EB0603B045E38001D8B145E1
:101BA00082D1002323706370A370E37069E732462B
:101BB00051460090FEF7C9FC009830442060E3E7EE
:101BC0000000094018000940FFF7EEBDFFF7ECBD2B
:101BD000FFF7EABD10B5174B4AF68022A3F8B22FE3
:101BE000154B81680446062000F0CAFD93F8A0302A
:101BF0009B070CBF1020502000F0BEFD63681A78D0
:101C0000BAB193F911300D4A03F1C00152F8210025
:101C10006FF3104042F8210003F01F015B099B00A5
:101C200003F1604303F5614301228A40C3F8802138
:101C30001A6010BD00F07E4000E0014000600040EE
:101C40008FB5C44BC4484FF47002C3F88820C34A10
:101C50009A604AF20253A0F8FE33012380F81F3441
:101C600090F8B134DD06FBD54FF42543A0F8FE33E0
:101C70004AF20353A0F8FE33B94BBA49BA4C0022DA
:101C8000A3F80021B94BC3E900414FF40041C3E977
:101C90000212C3E90412FEF755FD082380F813343D
:101CA000092380F8A23090F8803473B9012380F8BA
:101CB0008034AF4BAF481B68B0FBF3F3AE48B0FBCA
:101CC000F3F0800801D0FEF751FDA34B002283F80A
:101CD000812483F8802493F8A020002A40F0A88271
:101CE0009D48002380F8363090F83C30DE07FBD565
:101CF0000124002380F8314080F826309F4B036296
:101D0000FEF720FD042380F83E30842380F83E3027
:101D10004FF4254380F8D040A0F8FE33904BA3F851
:101D20000441B3F80441A4B2002CFAD10127A3F86E
:101D300000718DF807409DF80730FEF7ABFEEFF31A
:101D4000108287F310888E4ED6F8043123F00043BA
:101D5000C6F80431D6F8043182F31088894D2B6817
:101D6000C3F300038DF807302B68C3F300038DF82D
:101D700007302B68C3F300038DF80730EFF31082B0
:101D800087F31088D6F8043143F00043C6F80431D5
:101D9000D6F8043182F31088FEF79AFE7A4B7B481E
:101DA0009C804FF425421A80794A9A60794ADA6019
:101DB000794A4FF48051A2F82011784A9F80121A74
:101DC000214600F0BFFC7648764A7749774F121AD1
:101DD00000F0AAFC764BFF1ABF109846A74200F30A
:101DE0003C82FEF7AFFC734A6B49002303F1C0004D
:101DF000013312F8014B41F82040202BF6D16E4BF5
:101E00006E4A1968914274D06D4C1A6000272246C0
:101E1000B846BC464FF0010AB2F80490DFF8B0E1D2
:101E200000233EF8021B89450BD110680AFA03F122
:101E300000F0B850C9B2B0F1807F0CBF41EA080889
:101E40000F430133032BECD10CF1010CBCF1030F58
:101E500002F10802E0D1FEF71DFE3F4A92F8BB34C2
:101E600043EA080323EA070382F8BB34FEF730FE97
:101E7000EFF31080012383F31088524B196819B9CE
:101E8000514AD1704021D1701A6801321A6080F332
:101E900010880020A18827680A0A17F4803FC9B279
:101EA0004FEA02120BD002EB010C55F82CE06FF355
:101EB000104E45F82CE027F4803E45F82CE00A440B
:101EC0000130032845F8227004F10804E2D1EFF351
:101ED0001081012282F310881A6812B11A68013A3F
:101EE0001A601A681AB9384BDA708022DA7081F3F6
:101EF0001088194A1E4F4AF20253A2F8FE33D6F850
:101F0000003123F40063C6F800314FF42543A2F8F2
:101F1000FE333B684FF47A72B3FBF2F3013BB3F14B
:101F2000807F0AD24FF0E022F0215361094B83F801
:101F300023100023936107231361074B234AD3F82F
:101F4000001591424AF20251A3F8FE1340F0AC8111
:101F500040E000BF00ED00E000E0014000000000B4
:101F600000C0014000127A00006CDC02B4050020C1
:101F7000D005002000CA9A3BA09D1200000101106C
:101F8000006F044000080440000D0040D005002010
:101F9000D0150020D019002000600040CC11002096
:101FA00000000020B405002068290000B4050020CE
:101FB000B4050020C02800005011002054524F509A
:101FC0009428000060110020000D04403581730743
:101FD000102900000022C3F800254FF42542A3F881
:101FE000FE23A04CDFF8BC822368434563D008235E
:101FF000E3609D4B9D4A6360002501232374A2602A
:102000006561C4E90655EFF3108283F31088D6F8B2
:10201000083123F04003C6F80831D6F8083182F3BE
:102020001088A3684FF425421A60A3684FF08072AD
:10203000DD62DD639D64DA624FF000421A615A612D
:102040009A6149F695025D6202A99D6244F64B4091
:10205000DD611D629A665A664FF0FF332A46CDE96C
:102060000235FEF767FDA268029B53659365039BEB
:102070002846190641EA0341FEF74CFD4FF4AA0336
:102080009563C2F888501364E368D36041F003039A
:1020900041F001015063136328461163FF21FEF7ED
:1020A00041FD29462846FEF73DFD29462846FEF714
:1020B00039FDC4F80080D4E90001404518D10D78FD
:1020C00044F6206344F61F62032D88BF1A46A368B6
:1020D0009A660D781DB942F20F755D659D65DD6AE2
:1020E000ED0705D45A664FF4AA021A64E268DA6072
:1020F0000B78062B17D0404515D1A36800225B6EE4
:1021000002A94FF0FF331046CDE90232FEF712FD6F
:10211000A2680399136B09B90298506523F4403300
:1021200043EA014313632368514D434508BFD4E993
:102130000232504C08BF5A602368AB4274D04E4BF9
:1021400063604E483A68002384F83430016AC1F372
:10215000026302FA03F3C1F30271CB404849E36022
:102160008B4209D847498B4206D047498B4203D05E
:1021700046498B4240F0EF80006A424EC0F3026055
:1021800002FA00F1C14003F5742303F23F2301F585
:102190007421B3FBF6F3E36040F28353062001F2AF
:1021A0003F21B1FBF6F14B43B3FBF0F3236140F267
:1021B00076334B43B3FBF0F3636158234B43B3FBDC
:1021C000F0F3A361324B334EA1604B43B3FBF0F30A
:1021D000E361314B4B43B3FBF0F323622F4B4B4393
:1021E000B3FBF0F363622E4B002283F8C02F96F806
:1021F0009030012B04D0012386F8903000F0C0FA13
:102200001C48FFF7E7FCE368D6F8D8211948013BE2
:1022100003F01F0363F30502C6F8D82100F0A8FA03
:10222000002840F094802560124800F09DFA92E06A
:1022300093F836201AB993F83C20D107FBD50F4B01
:1022400093F8A020C2F30011D206F9D483F8A010AD
:1022500093F8A020D706FBD442E558F8043B9847F2
:102260000134BBE5A811002030290000008307409D
:102270004E45504F18110020AC28000000E00140EE
:10228000FF083D0040420F0080841E00C0C62D00A4
:10229000B86A050000C07E40D066050068ED2200E7
:1022A00000F07E4054504700C3F800254FF425420B
:1022B000A3F8FE23654A1368B3F5FA7FFBD3644B9A
:1022C0004AF2025500214FF425444FF48042A3F80E
:1022D000FE53C3F80015A3F8FE43106800F07F40DA
:1022E000B0F1005F7FF47DAEA3F8FE53EFF3108CE6
:1022F000012585F31088D6F8000140F40060C6F887
:102300000001D6F800018CF31088EFF3108C85F3F0
:102310001088D6F8000140F48050C6F80001D6F8C5
:1023200000018CF31088A3F8FE434A4B998072B6E3
:10233000BFF34F8FBFF36F8F4FF0E0231961C3F8E6
:10234000082D136883F308885368984749E6236883
:10235000AB423FF469AF404C2378FF2B25D13B22A1
:1023600000213E4800F0EEF93D4A0023538293825B
:1023700013895B009BB2591E5B42D381394B11829A
:102380001A60394B23B13948AFF30080384B1860DD
:10239000364E0025E8B2FEF7C5FA50B94FF0E023FB
:1023A000D3F8F03DD80700D500BE2378FF2B49D1E4
:1023B000FEE70368984701353278EBB29A42E9D2DA
:1023C000002323702B4B1A8842F480621A801A88EB
:1023D0005105FCD51A886FF345121A801A886FF3DD
:1023E00086121A801A8842F001021A800522C3F868
:1023F000F020D3F800246FF30412C3F80024B3F8DC
:10240000CC2092B242F08002A3F8CC20B3F85E2038
:10241000402161F30602A3F85E204FF45F421A8662
:1024200001225A87DA861A8842F010021A80B3F81D
:102430004020120642BF1A8842F010021A80FEF7AE
:1024400051F9B2E7FEF724FDAFE700BFC811002045
:1024500000E00140000D0040B005002014080020FD
:10246000980500205008002000000000D80500203A
:10247000D40500200000094010B5104B1988FEF764
:10248000CFFAC8B90E4A02EA8112A2F56E33013BB7
:102490006FF47E318B420FD30A490B4CB1F5802F7C
:1024A00084F8340008D920464FF40063BDE810409A
:1024B00002F5804200F068B910BD00BF1409002089
:1024C00000F8FFFF160900201811002070B50C4617
:1024D000117801F01F03012B154640F0118111F016
:1024E00060011CD153780A2B10D00B2B40F00881CF
:1024F000012C01D0012424E0824B52885A70FEF74F
:1025000041FA2846BDE87040FEF7DABB012CF1D154
:102510007D4922462846BDE87040FEF76FBC202961
:1025200040F0EE805378062B00F2EA80DFE803F0FB
:1025300004321C520F140F00012C04D12846FEF760
:10254000BFFB204670BD032CD4D1FFF7A3F8012CAC
:10255000D0D1FEF717FAF1E7012CCBD16B49224617
:102560002846FEF74BFCECE7012CC3D1654E3478CE
:1025700014F00204E5D0EC88402C00F2C180698898
:102580002246614306F10C0000F0CEF8224606F127
:102590000C01BFE7012CADD15A4B1C7814F001049B
:1025A000CFD09A78022A02D0052A40F0A980EA8882
:1025B000402A00F2A58001221A716A88DA80EA882E
:1025C0001A81EA881AB1032199705149A2E70622BB
:1025D0009A7096E74B4A9178032905D0062953D083
:1025E000012C87D1002309E0012C0BD113793BB1D9
:1025F0005378002B0CBF002364230421D2784EE0D3
:102600000521FBE7032C7FF475AF1479002C38D03B
:102610000423D18893703F4B1589198001F580718F
:10262000890111F4F86F14D172B6FEF7F9F978B98F
:10263000394EB1F5802F86F8340009D221F4FF61BC
:102640004FF40063012221F00701304600F0A0F8AA
:1026500062B6324E324833882D492A46184400F07B
:1026600063F833881D44ADB2B5F5006F358005D1F0
:1026700072B6FFF701FF62B600233380FEF7E8F978
:102680005FE70523937035E7012C0DD11379D278DC
:10269000002B08BF02214FF0000318BF0721284676
:1026A000BDE87040FEF7DCBB032C7FF423AF147948
:1026B00024B30723937072B6FFF7DEFE62B6FEF70F
:1026C000C7F9FEF7ADF900287FF414AF124B18607C
:1026D0005B6893F9113013F1210F3FF40BAF5A09E6
:1026E000012103F01F0301FA03F320320D4941F8E1
:1026F0002230BFF34F8FBFF36F8F22E70223C1E772
:1027000000241EE788070020890700208A07002090
:102710009407002014090020181100201611002031
:102720001609002000E100E00A44914200F1FF3365
:1027300000D1704710B511F8014B03F8014F9142D9
:10274000F9D110BD02440346934200D1704703F80B
:10275000011BF9E7034613F8012B002AFBD1181AD5
:1027600001387047FFFFFFFF5FF800F039010020DC
:102770005FF800F0B90000205FF800F08F00002043
:102780005FF800F07D0000205FF800F039040020C1
:102790005FF800F01103002000000004342E302EFA
:1027A00030004275696C7420776974682052656ED8
:1027B0006573617320416476616E63656420466C65
:1027C000657869626C6520536F6674776172652005
:1027D0005061636B6167652076657273696F6E2007
:1027E000342E302E300041726475696E6F004F7068
:1027F00074612D4469676974616C204446550040DA
:10280000436F6465466C617368202F3078303030D8
:1028100030303030302F382A324B612C3132302A70
:10282000324B67004044617461466C617368202FCD
:10283000307830383030303030302F382A314B67F4
:10284000000904FFA509000095090000AD0900007A
:10285000CD24000000000000000000000902240058
:1028600001010080320904000000FE010204090495
:10287000000100FE010205092107E80340000101F3
:10288000120100020000004041236E01000101021C
:102890000301FFFF00000113070400000000011303
:1028A0000005000000000113010500000000000009
:1028B000790A000000000000000000000207020882
:1028C000333431320000000000000000000000003E
:1028D00000000000000000000000000000000000F8
:1028E00001000000000000000000000000000000E7
:1028F00000000000000000000000000000000000D8
:1029000000000000000000000000000000000000C7
:10291000020403040404FFFFC308000005080000CC
:102920004B050000410800002308000019050000C5
:102930000200000096980000020000004B4C0000CE
:1029400003FF00000000000000000000E02800007D
:1029500041280000E6270000EE2700006411002057
:08296000FF27000024280000FD
:1029680010B5431E19440B4B93F804416FF3000450
:1029780083F80441040C80B2A3F81041D2B2A3F842
:102988000801080C89B2C3F82001A3F8181183F8CC
:10299800142110BD00C07E4082B00F4B0190D3F8C7
:1029A8002C2151060FD5002283F814210190D3F869
:1029B8002C21C2F38010520608D5019A2AB1019A37
:1029C800013A0192F3E7019A12B9142002B0704754
:1029D800019A013A0192E2E700C07E40414303298F
:1029E80004D98908A1F101010029FBD17047094BDD
:1029F800A522C3F88021C243D2B283F8000183F82C
:102A0800002183F8000193F80031834200D100BF10
:102A1800704700BF00C07E4073B51D4EB6F8B24F78
:102A2800A4B24FF49643012C0546019309D1922094
:102A3800FFF7DDFF0320A968FFF7D0FF1220FFF79B
:102A4800D6FF0820FFF7D3FFA96806204FF42A43D2
:102A5800FFF7C4FFA6F8B23FB6F8B20F80B270B95C
:102A6800012C0AD10B4BA3F80441B3F8040180B23E
:102A78000028FAD10122A3F8002102B070BD019B01
:102A88001BB1019B013B0193E6E71420F5E700BF6A
:102A980000F07E4000C0014010B5002380F83430BB
:102AA8000C4BB3F8B23F9BB204460BB900F020FAC6
:102AB800094BD3F8242142F00102C3F82421D3F8AA
:102AC80024216FF30002C3F824212046BDE81040FA
:102AD800A2E700BF00F07E4000C07E40F8B5054682
:102AE800084616461F46FFF757FF1428044604D128
:102AF8002846FFF7D1FF2046F8BD054BD3F8F04133
:102B08003440F8D02846FFF7C7FF3C46F3E700BF3C
:102B180000C07E4010B50023934200D110BDCC5CAC
:102B2800C4540133F8E738B51D4B0022A3F800213F
:102B380043681A7804467AB193F9113001215A0989
:102B480003F01F0301FA03F32032164941F822303B
:102B5800BFF34F8FBFF36F8F134B4AF60122A3F8D1
:102B6800B22F1220FFF743FF104BA1680320FFF795
:102B780035FF93F8A0300340002B0BBF8221C22100
:102B88009220D2200CBF06250425FFF730FF084607
:102B9800FFF72DFFA1682846BDE838401EE700BFB3
:102BA80000C0014000E100E000F07E4000E001408C
:102BB80082B00F4B0190D3F82C2111060FD50022BB
:102BC800C3F8DC210190D3F82C21C2F3C0101206FF
:102BD80008D5019A2AB1019A013A0192F3E7019ABC
:102BE80012B9142002B07047019A013A0192E2E743
:102BF80000C07E4038B50546406AFFF7D9FF142863
:102C0800044604D12846FFF747FF204638BD054B48
:102C1800D3F8F04114F01204F7D02846FFF73CFF30
:102C28001824F2E700C07E40F8B5054614460F4662
:102C38001E46FFF778FF214683223846FFF790FEAD
:102C48000334A969A4084FF4FC7310226143284691
:102C5800FFF744FF48B9054BD3F82831C3F3C00345
:102C680033702846BDE8F840D6E6F8BD00C07E407F
:102C7800F8B5044615460E461F46FFF754FF0D4BA0
:102C880093F804216FF3000283F8042107FB05F190
:102C980084223046FFF764FEE16919231122694353
:102CA8002046FFF71BFF18B92046BDE8F840B3E6F9
:102CB800F8BD00BF00C07E402DE9F84F8946804628
:102CC8009246FFF730FF214C4D4683274FF6FF7B96
:102CD80094F8043143F0010384F80431BAF1000F89
:102CE8001DD1C4F830B1C4F838B1C4F8DC7140461D
:102CF800FFF780FF94F804316FF30003013784F87D
:102D08000431064618B9872F05F10405E0D140467D
:102D1800FFF782FE002E18BF3046BDE8F88F6A78AC
:102D28002B7843EA0223C4F83031BB00B3F5067FA1
:102D38000DBFB9F80E30EA78AB784AEA030318BF3A
:102D480043EA0223C4F83831CFE700BF00C07E4011
:102D580013B5104C0B0C89B2A4F810310822A4F852
:102D6800081101466846FFF7D5FEBDF80030C4F8E3
:102D78003031BDF80230C4F83831BDF80430C4F839
:102D88004031BDF80630C4F84431812384F8143149
:102D980002B010BD00C07E40F8B5044617460E4686
:102DA8001D46FFF7C0FEC4E90A67154AED0825630A
:102DB80092F804316FF3000382F804310025236B85
:102DC800BBB10DB12846F8BDD4E90A01FFF7C0FF31
:102DD800A36A21690833A362E36A0833E362236BB9
:102DE800013B2363122218232046FFF777FE05468E
:102DF800E5E7002DE6D12046FFF70EFEE2E700BF2B
:102E080000C07E400C4B5AB9C0F38F20C1F38F210C
:102E1800C3F830018222C3F83811C3F8DC217047A7
:102E280040F47E404FF6FF7240F0FF00C3F83821AF
:102E3800C3F830018122F0E700C07E40F8B516469D
:102E480007460D46164CFFF76EFE6EB1D4F8D83122
:102E580065F38713C4F8D83100253846FFF7DCFD41
:102E6800002D18BF2846F8BD94F8043115F0010F5D
:102E780043F0010384F804310CBF4FF48070002044
:102E880001223146FFF7BEFF3846FFF7B3FE94F83C
:102E9800043166F30003054684F80431DDE700BF1A
:102EA80000C07E4073B5114E019205460C46FFF7EF
:102EB8003AFE96F8043143F0010386F8043101998B
:102EC80000222046FFF79EFF2846FFF793FE96F85C
:102ED80004316FF30003044686F804312846FFF7EF
:102EE8009BFD002C18BF204602B070BD00C07E407C
:102EF8005FF800F0D51B00006D09000054080020A1
:102F080010000C000000E0FF1F000000000000009F
:042F1800FF000000B6
:0400000300001C419C
:00000001FF
